:103C000011241FBECFEFD4E0DEBFCDBF21E0A0E086
:103C1000B1E001C01D92A038B207E1F70E94431E37
:103C20000C94D61F0C94421E8091C00087FFFCCFDD
:103C30008091C60008955A9A8093C6008091C00072
:103C400085FFFCCF8091C00080628093C00083E339
:103C500097E00197F1F75A98089581E40E941B1E9E
:103C600086E50E941B1E82E50E941B1E82E40E94C4
:103C70001B1E8FE40E941B1E8FE40E941B1E84E506
:103C80000C941B1E0895CF93DF931F92CDB7DEB720
:103C9000289A209AF894A89584B7877F84BF80914A
:103CA0006000886180936000109260005A98529A78
:103CB0001092C5008FE28093C40088E18093C10018
:103CC00086E08093C200E12CF12C00E010E08091AE
:103CD000C00087FF04C08091C6008335A1F080E951
:103CE000E81681E0F80628F02B9828982098F8012B
:103CF00009958FEF9FE80197F1F700C000009FEF53
:103D0000E91AF90AE4CF0E942D1E812CC12CD12C76
:103D10006CE0362E73E0672EE1E17E2E552453943D
:103D2000F5E04F2E0E94141E813611F489E525C15D
:103D3000813449F40E94141E90E0D82ECC240E94B5
:103D4000141EC82AFEC0823641F489E50E941B1E5B
:103D500080E00E941B1E80E810C1823409F071C00F
:103D60000E94141E0E94141E982E0E94141E982F4A
:103D700000E011E0B12CB91428F499830E94141EBC
:103D8000998101C08FEFF80181938F01B394F0E81E
:103D9000BF12F1CF85E78812C6C0963409F034C04F
:103DA000860120E030E0000F111F221F331FA0E02A
:103DB000B1E080910001B901A801900E1196EC913B
:103DC000119790E09E2BFA010C0150925700E89554
:103DD00011244E5F5F4F6F4F7F4F941629F012965C
:103DE0008C9112971296EACFF80140925700E8950D
:103DF00007B600FCFDCF70925700E8957695679561
:103E0000579547956A019DC0953409F09AC000E026
:103E100011E0C601805091405C01F801E90D2E2EA1
:103E2000C501800F911FF80161918F010E94C81F89
:103E30002012F6CFFFEFCF1ADF0A9A94C90CD11CDB
:103E400080C0873609F03EC00E94141E0E94141ED6
:103E5000B82E0E94141E8634F9F4E12CF12CCC0CFF
:103E6000DD1CEE1CFF1CBC0CF60105911491802F8B
:103E70000E941B1E812F0E941B1E82E0C80ED11CB7
:103E8000E11CF11CBC10F0CFB701A6017695679537
:103E9000579547956A0146CF853409F043CF86018F
:103EA000AC2CAB0CC8010E94C01F0E941B1E0F5FF0
:103EB0001F4FA012F7CF9FEFC91AD90ABA94CB0CA3
:103EC000D11C30CF8536A9F4E5E78E123AC0E0E088
:103ED000F0E060925700E89507B600FCFDCFE0588F
:103EE000FF4FE1158CE3F807A1F770925700E895B2
:103EF00028C0853459F4E8E1F0E00FB6F894A895AD
:103F0000E09360000FBE309260001BC08035C9F0A6
:103F10008C34B9F0803711F483E52FC0843729F44D
:103F200085E70E941B1E80E028C098E8980F923019
:103F300018F40E94141E05C0843529F40E94141E32
:103F4000882E8DE01AC0833519F40E942D1EEACE0A
:103F5000863529F480E30E941B1E88E30EC0833758
:103F600041F486E00E941B1E84E90E941B1E8EE124
:103F700004C08B3109F4D6CE8FE30E941B1ED2CE33
:103F8000F999FECF92BD81BDF89A992780B5089521
:103F9000262FF999FECF1FBA92BD81BD20BD0FB665
:103FA000F894FA9AF99A0FBE01960895F894FFCF03
:0400000300003C00BD
:00000001FF
